:1000000034C0000057C0000055C0000053C00000BD
:1000100051C000004FC000004DC000004BC00000A8
:1000200049C0000047C0000045C0000043C00000B8
:1000300041C000003FC000003DC000003BC00000C8
:1000400039C0000037C0000035C0000033C00000D8
:1000500031C000002FC000002DC000002BC00000E8
:1000600029C0000027C00000C10211241FBECFEF2D
:10007000D8E0DEBFCDBF11E0A0E0B1E0E8E2F6E0FD
:1000800002C005900D92A633B107D9F721E0A6E38F
:10009000B1E001C01D92A834B207E1F710E0C5E35A
:1000A000D0E003C02197FE01B7D2C433D107D1F706
:1000B0003ED2B8C2A5CF86E391E083D140E060E0B4
:1000C00086E391E087D168E071E086E391E000D2B9
:1000D0002FEF87EA91E6215080409040E1F700C081
:1000E000000086E391E06DD140E060E086E391E0BE
:1000F00071D163E171E086E391E0EAD140E061E033
:1001000086E391E067D16FE171E086E391E0E0D1B1
:100110002FEF87EA91E6215080409040E1F700C040
:10012000000008958F92AF92BF92CF92EF92FF920C
:100130000F93CF93DF93CDB7DEB7FC01718360835C
:1001400033832283F582E482B782A6828C859D85E3
:10015000918780878F8598899387828744870587D1
:10016000C68687868E85808B8989818BDF91CF912A
:100170000F91FF90EF90CF90BF90AF908F90089528
:10018000FB0181E090E001C0880F4A95EAF7908179
:10019000222319F0892B8083089580958923FBCF32
:1001A0000F931F93CF93DF93EC01062F262F21701F
:1001B0006C817D814E85E4DF10E0980135952795AF
:1001C00021706E817F814F85CE01DADF98013595F0
:1001D0002795359527952170688579854889CE01C1
:1001E000CFDF23E0159507952A95E1F7202F2170A1
:1001F0006A857B854989CE01C3DFDF91CF911F914D
:100200000F910895FF920F931F93CF93DF93EC010B
:10021000F62EE881F98120818C8501E010E0A801AB
:1002200002C0440F551F8A95E2F7CA0180958223C8
:100230008083EA81FB8120818D85A80102C0440F63
:10024000551F8A95E2F7CA0180958223808370E06A
:1002500084E0759567958A95E1F7CE01A1DFEA8183
:10026000FB8180819D85980101C0220F9A95EAF754
:10027000822B80835AE65A95F1F700C0EA81FB8110
:1002800020818D85A80102C0440F551F8A95E2F791
:10029000CA018095822380835AE65A95F1F700C0FF
:1002A0006F2D6F70CE017CDFEA81FB8180819D859F
:1002B000980101C0220F9A95EAF7822B80838AE683
:1002C0008A95F1F700C0EA81FB8180819D8502C09B
:1002D000000F111F9A95E2F70095082300834AE664
:1002E0004A95F1F700C0CDB7DEB7E5E087C1CF93FF
:1002F000DF93EC01E881F98122913C8581E090E077
:10030000AC0101C0440F3A95EAF7242B2083EA811F
:10031000FB8122913D85AC0101C0440F3A95EAF77B
:10032000242B2083EC81FD8122913E85AC0101C00C
:10033000440F3A95EAF7242B2083EE81FF81229126
:100340003F85AC0101C0440F3A95EAF7242B208386
:10035000E885F98522913889AC0101C0440F3A95AE
:10036000EAF7242B2083EA85FB852291398901C095
:10037000880F3A95EAF7822B80832FEF81EE94E085
:10038000215080409040E1F700C0000062E0CE01C3
:1003900039DF68E2CE0136DF6CE0CE0133DF66E0A4
:1003A000CE0130DF61E0CE012DDF2FEF89EF90E04D
:1003B000215080409040E1F700C00000DF91CF91D4
:1003C000089561E01FDF8FE39CE90197F1F700C01A
:1003D00000000895611104C060E8640F13CF089510
:1003E000613011F460ECF9CF60E0F8CFFF920F9329
:1003F0001F93CF93DF93EC01F62EE881F981808182
:100400009C8501E010E0980101C0220F9A95EAF75F
:10041000822B8083EA81FB8120818D85A80102C027
:10042000440F551F8A95E2F7CA0180958223808385
:1004300070E084E0759567958A95E1F7CE01B0DEAE
:10044000EA81FB8180819D85980101C0220F9A95E8
:10045000EAF7822B80835AE65A95F1F700C0EA81C9
:10046000FB8120818D85A80102C0440F551F8A950C
:10047000E2F7CA018095822380835AE65A95F1F704
:1004800000C06F2D6F70CE018BDEEA81FB81808111
:100490009D85980101C0220F9A95EAF7822B8083EF
:1004A0008AE68A95F1F700C0EA81FB8180819D850B
:1004B00002C0000F111F9A95E2F7009508230083F0
:1004C0004AE64A95F1F700C0CDB7DEB7E5E096C041
:1004D0000F931F93CF93DF938C01EB0169916623F8
:1004E00019F0C80183DFFACFDF91CF911F910F91EF
:1004F0000895EF92FF920F931F93CF93DF9368308D
:1005000088F47A018C01685F660F660F660F7ADEE9
:10051000E70188E0E80EF11C6991C80167DFCE159C
:10052000DF05D1F7CDB7DEB7E6E067C05FCF86E382
:1005300091E0DDDE40E051E060E086E391E0D9DF6C
:10054000BADD86E391E03DDF40E060E086E391E0E4
:1005500041DF60E086E391E0E9DF6CE271E086E391
:1005600091E0B6DF259A90E285B1892785B92FEF12
:1005700039E688E1215030408040E1F700C00000BA
:10058000F3CF8F92AF92BF92CF92EF92FF920F93E1
:1005900083E08F931F9285E28F9392E09F931F9247
:1005A0008F938824839485E2A82EB12CC12C95E2E8
:1005B000E92EF12C06E02BE230E047E06BE270E040
:1005C00086E391E0AFDD0F900F900F900F900F90AA
:1005D0000F900F91FF90EF90CF90BF90AF908F90C2
:1005E00008952A88398848885F846E847D848C8445
:1005F0009B84AA84B984C884DF80EE80FD800C814E
:100600001B81AA81B981CE0FD11D0FB6F894DEBF30
:100610000FBECDBFED010895EE0FFF1F0590F491C1
:08062000E02D0994F894FFCFCE
:1006280000181C1E1F1E1C182D2D4B4157414348F6
:100638002D2D00506F77657265642062793A004B02
:10064800616963686F2047726F757000486F6D65E8
:06065800706167650000FF
:00000001FF
